{
  "contractName": "PlayBirdMansion",
  "abi": [
    {
      "inputs": [
        {
          "internalType": "address payable",
          "name": "_artist",
          "type": "address"
        },
        {
          "internalType": "address payable",
          "name": "_developer",
          "type": "address"
        },
        {
          "internalType": "address payable",
          "name": "_marketer",
          "type": "address"
        }
      ],
      "stateMutability": "nonpayable",
      "type": "constructor"
    },
    {
      "anonymous": false,
      "inputs": [
        {
          "indexed": true,
          "internalType": "address",
          "name": "owner",
          "type": "address"
        },
        {
          "indexed": true,
          "internalType": "address",
          "name": "approved",
          "type": "address"
        },
        {
          "indexed": true,
          "internalType": "uint256",
          "name": "tokenId",
          "type": "uint256"
        }
      ],
      "name": "Approval",
      "type": "event"
    },
    {
      "anonymous": false,
      "inputs": [
        {
          "indexed": true,
          "internalType": "address",
          "name": "owner",
          "type": "address"
        },
        {
          "indexed": true,
          "internalType": "address",
          "name": "operator",
          "type": "address"
        },
        {
          "indexed": false,
          "internalType": "bool",
          "name": "approved",
          "type": "bool"
        }
      ],
      "name": "ApprovalForAll",
      "type": "event"
    },
    {
      "anonymous": false,
      "inputs": [
        {
          "indexed": true,
          "internalType": "address",
          "name": "previousOwner",
          "type": "address"
        },
        {
          "indexed": true,
          "internalType": "address",
          "name": "newOwner",
          "type": "address"
        }
      ],
      "name": "OwnershipTransferred",
      "type": "event"
    },
    {
      "anonymous": false,
      "inputs": [
        {
          "indexed": true,
          "internalType": "address",
          "name": "from",
          "type": "address"
        },
        {
          "indexed": true,
          "internalType": "address",
          "name": "to",
          "type": "address"
        },
        {
          "indexed": true,
          "internalType": "uint256",
          "name": "tokenId",
          "type": "uint256"
        }
      ],
      "name": "Transfer",
      "type": "event"
    },
    {
      "inputs": [],
      "name": "MAX_BIRDS",
      "outputs": [
        {
          "internalType": "uint256",
          "name": "",
          "type": "uint256"
        }
      ],
      "stateMutability": "view",
      "type": "function",
      "constant": true
    },
    {
      "inputs": [
        {
          "internalType": "address",
          "name": "",
          "type": "address"
        }
      ],
      "name": "alreadyReferred",
      "outputs": [
        {
          "internalType": "bool",
          "name": "",
          "type": "bool"
        }
      ],
      "stateMutability": "view",
      "type": "function",
      "constant": true
    },
    {
      "inputs": [
        {
          "internalType": "address",
          "name": "to",
          "type": "address"
        },
        {
          "internalType": "uint256",
          "name": "tokenId",
          "type": "uint256"
        }
      ],
      "name": "approve",
      "outputs": [],
      "stateMutability": "nonpayable",
      "type": "function"
    },
    {
      "inputs": [
        {
          "internalType": "address",
          "name": "owner",
          "type": "address"
        }
      ],
      "name": "balanceOf",
      "outputs": [
        {
          "internalType": "uint256",
          "name": "",
          "type": "uint256"
        }
      ],
      "stateMutability": "view",
      "type": "function",
      "constant": true
    },
    {
      "inputs": [
        {
          "internalType": "uint256",
          "name": "tokenId",
          "type": "uint256"
        }
      ],
      "name": "getApproved",
      "outputs": [
        {
          "internalType": "address",
          "name": "",
          "type": "address"
        }
      ],
      "stateMutability": "view",
      "type": "function",
      "constant": true
    },
    {
      "inputs": [],
      "name": "maxBirdPurchase",
      "outputs": [
        {
          "internalType": "uint256",
          "name": "",
          "type": "uint256"
        }
      ],
      "stateMutability": "view",
      "type": "function",
      "constant": true
    },
    {
      "inputs": [],
      "name": "name",
      "outputs": [
        {
          "internalType": "string",
          "name": "",
          "type": "string"
        }
      ],
      "stateMutability": "view",
      "type": "function",
      "constant": true
    },
    {
      "inputs": [
        {
          "internalType": "address",
          "name": "",
          "type": "address"
        }
      ],
      "name": "numReferrals",
      "outputs": [
        {
          "internalType": "uint256",
          "name": "",
          "type": "uint256"
        }
      ],
      "stateMutability": "view",
      "type": "function",
      "constant": true
    },
    {
      "inputs": [],
      "name": "owner",
      "outputs": [
        {
          "internalType": "address",
          "name": "",
          "type": "address"
        }
      ],
      "stateMutability": "view",
      "type": "function",
      "constant": true
    },
    {
      "inputs": [
        {
          "internalType": "uint256",
          "name": "tokenId",
          "type": "uint256"
        }
      ],
      "name": "ownerOf",
      "outputs": [
        {
          "internalType": "address",
          "name": "",
          "type": "address"
        }
      ],
      "stateMutability": "view",
      "type": "function",
      "constant": true
    },
    {
      "inputs": [
        {
          "internalType": "address",
          "name": "",
          "type": "address"
        }
      ],
      "name": "referrableAddress",
      "outputs": [
        {
          "internalType": "bool",
          "name": "",
          "type": "bool"
        }
      ],
      "stateMutability": "view",
      "type": "function",
      "constant": true
    },
    {
      "inputs": [
        {
          "internalType": "address",
          "name": "",
          "type": "address"
        }
      ],
      "name": "referredToBefore",
      "outputs": [
        {
          "internalType": "bool",
          "name": "",
          "type": "bool"
        }
      ],
      "stateMutability": "view",
      "type": "function",
      "constant": true
    },
    {
      "inputs": [],
      "name": "renounceOwnership",
      "outputs": [],
      "stateMutability": "nonpayable",
      "type": "function"
    },
    {
      "inputs": [
        {
          "internalType": "address",
          "name": "from",
          "type": "address"
        },
        {
          "internalType": "address",
          "name": "to",
          "type": "address"
        },
        {
          "internalType": "uint256",
          "name": "tokenId",
          "type": "uint256"
        }
      ],
      "name": "safeTransferFrom",
      "outputs": [],
      "stateMutability": "nonpayable",
      "type": "function"
    },
    {
      "inputs": [
        {
          "internalType": "address",
          "name": "from",
          "type": "address"
        },
        {
          "internalType": "address",
          "name": "to",
          "type": "address"
        },
        {
          "internalType": "uint256",
          "name": "tokenId",
          "type": "uint256"
        },
        {
          "internalType": "bytes",
          "name": "_data",
          "type": "bytes"
        }
      ],
      "name": "safeTransferFrom",
      "outputs": [],
      "stateMutability": "nonpayable",
      "type": "function"
    },
    {
      "inputs": [],
      "name": "saleActive",
      "outputs": [
        {
          "internalType": "bool",
          "name": "",
          "type": "bool"
        }
      ],
      "stateMutability": "view",
      "type": "function",
      "constant": true
    },
    {
      "inputs": [
        {
          "internalType": "address",
          "name": "operator",
          "type": "address"
        },
        {
          "internalType": "bool",
          "name": "approved",
          "type": "bool"
        }
      ],
      "name": "setApprovalForAll",
      "outputs": [],
      "stateMutability": "nonpayable",
      "type": "function"
    },
    {
      "inputs": [
        {
          "internalType": "bytes4",
          "name": "interfaceId",
          "type": "bytes4"
        }
      ],
      "name": "supportsInterface",
      "outputs": [
        {
          "internalType": "bool",
          "name": "",
          "type": "bool"
        }
      ],
      "stateMutability": "view",
      "type": "function",
      "constant": true
    },
    {
      "inputs": [],
      "name": "symbol",
      "outputs": [
        {
          "internalType": "string",
          "name": "",
          "type": "string"
        }
      ],
      "stateMutability": "view",
      "type": "function",
      "constant": true
    },
    {
      "inputs": [
        {
          "internalType": "uint256",
          "name": "index",
          "type": "uint256"
        }
      ],
      "name": "tokenByIndex",
      "outputs": [
        {
          "internalType": "uint256",
          "name": "",
          "type": "uint256"
        }
      ],
      "stateMutability": "view",
      "type": "function",
      "constant": true
    },
    {
      "inputs": [
        {
          "internalType": "address",
          "name": "owner",
          "type": "address"
        },
        {
          "internalType": "uint256",
          "name": "index",
          "type": "uint256"
        }
      ],
      "name": "tokenOfOwnerByIndex",
      "outputs": [
        {
          "internalType": "uint256",
          "name": "",
          "type": "uint256"
        }
      ],
      "stateMutability": "view",
      "type": "function",
      "constant": true
    },
    {
      "inputs": [
        {
          "internalType": "uint256",
          "name": "tokenId",
          "type": "uint256"
        }
      ],
      "name": "tokenURI",
      "outputs": [
        {
          "internalType": "string",
          "name": "",
          "type": "string"
        }
      ],
      "stateMutability": "view",
      "type": "function",
      "constant": true
    },
    {
      "inputs": [],
      "name": "totalSupply",
      "outputs": [
        {
          "internalType": "uint256",
          "name": "",
          "type": "uint256"
        }
      ],
      "stateMutability": "view",
      "type": "function",
      "constant": true
    },
    {
      "inputs": [
        {
          "internalType": "address",
          "name": "from",
          "type": "address"
        },
        {
          "internalType": "address",
          "name": "to",
          "type": "address"
        },
        {
          "internalType": "uint256",
          "name": "tokenId",
          "type": "uint256"
        }
      ],
      "name": "transferFrom",
      "outputs": [],
      "stateMutability": "nonpayable",
      "type": "function"
    },
    {
      "inputs": [
        {
          "internalType": "address",
          "name": "newOwner",
          "type": "address"
        }
      ],
      "name": "transferOwnership",
      "outputs": [],
      "stateMutability": "nonpayable",
      "type": "function"
    },
    {
      "inputs": [],
      "name": "withdraw",
      "outputs": [],
      "stateMutability": "nonpayable",
      "type": "function"
    },
    {
      "inputs": [
        {
          "internalType": "string",
          "name": "newURI",
          "type": "string"
        }
      ],
      "name": "setBaseURI",
      "outputs": [],
      "stateMutability": "nonpayable",
      "type": "function"
    },
    {
      "inputs": [
        {
          "internalType": "uint256",
          "name": "amount",
          "type": "uint256"
        }
      ],
      "name": "reserveBirds",
      "outputs": [],
      "stateMutability": "nonpayable",
      "type": "function"
    },
    {
      "inputs": [],
      "name": "flipSaleState",
      "outputs": [],
      "stateMutability": "nonpayable",
      "type": "function"
    },
    {
      "inputs": [
        {
          "internalType": "uint256",
          "name": "numberOfBirds",
          "type": "uint256"
        }
      ],
      "name": "mintBird",
      "outputs": [],
      "stateMutability": "payable",
      "type": "function",
      "payable": true
    },
    {
      "inputs": [
        {
          "internalType": "uint256",
          "name": "numberOfBirds",
          "type": "uint256"
        },
        {
          "internalType": "address",
          "name": "referral",
          "type": "address"
        }
      ],
      "name": "mintBirdWithReferral",
      "outputs": [],
      "stateMutability": "payable",
      "type": "function",
      "payable": true
    },
    {
      "inputs": [
        {
          "internalType": "uint256",
          "name": "newPrice",
          "type": "uint256"
        }
      ],
      "name": "updatePrice",
      "outputs": [],
      "stateMutability": "nonpayable",
      "type": "function"
    },
    {
      "inputs": [
        {
          "internalType": "uint256",
          "name": "newDc",
          "type": "uint256"
        }
      ],
      "name": "updateDiscount",
      "outputs": [],
      "stateMutability": "nonpayable",
      "type": "function"
    },
    {
      "inputs": [
        {
          "internalType": "address",
          "name": "_owner",
          "type": "address"
        },
        {
          "internalType": "address",
          "name": "_operator",
          "type": "address"
        }
      ],
      "name": "isApprovedForAll",
      "outputs": [
        {
          "internalType": "bool",
          "name": "isOperator",
          "type": "bool"
        }
      ],
      "stateMutability": "view",
      "type": "function",
      "constant": true
    },
    {
      "inputs": [],
      "name": "getReferredAddressesLength",
      "outputs": [
        {
          "internalType": "uint256",
          "name": "",
          "type": "uint256"
        }
      ],
      "stateMutability": "view",
      "type": "function",
      "constant": true
    },
    {
      "inputs": [],
      "name": "getReferredAddresses",
      "outputs": [
        {
          "internalType": "address[]",
          "name": "",
          "type": "address[]"
        }
      ],
      "stateMutability": "view",
      "type": "function",
      "constant": true
    }
  ],
  "bytecode": "0x60806040526801158e460913d00000600b55671bc16d674ec80000600c556000600d60006101000a81548160ff0219169083151502179055506000601660006101000a81548160ff0219169083151502179055503480156200006057600080fd5b50604051620059713803806200597183398181016040528101906200008691906200046e565b6040518060400160405280601181526020017f506c61792042697264204d616e73696f6e0000000000000000000000000000008152506040518060400160405280600381526020017f50424d000000000000000000000000000000000000000000000000000000000081525081600090805190602001906200010a929190620003a7565b50806001908051906020019062000123929190620003a7565b505050620001466200013a6200021260201b60201c565b6200022e60201b60201c565b82600d60016101000a81548173ffffffffffffffffffffffffffffffffffffffff021916908373ffffffffffffffffffffffffffffffffffffffff16021790555081600e60006101000a81548173ffffffffffffffffffffffffffffffffffffffff021916908373ffffffffffffffffffffffffffffffffffffffff16021790555080600f60006101000a81548173ffffffffffffffffffffffffffffffffffffffff021916908373ffffffffffffffffffffffffffffffffffffffff16021790555050505062000582565b600062000229620002f460201b620022b91760201c565b905090565b6000600a60009054906101000a900473ffffffffffffffffffffffffffffffffffffffff16905081600a60006101000a81548173ffffffffffffffffffffffffffffffffffffffff021916908373ffffffffffffffffffffffffffffffffffffffff1602179055508173ffffffffffffffffffffffffffffffffffffffff168173ffffffffffffffffffffffffffffffffffffffff167f8be0079c531659141344cd1fd0a4f28419497f9722a3daafe3b4186f6b6457e060405160405180910390a35050565b60003073ffffffffffffffffffffffffffffffffffffffff163373ffffffffffffffffffffffffffffffffffffffff161415620003a057600080368080601f016020809104026020016040519081016040528093929190818152602001838380828437600081840152601f19601f820116905080830192505050505050509050600080369050905073ffffffffffffffffffffffffffffffffffffffff818301511692505050620003a4565b3390505b90565b828054620003b590620004fe565b90600052602060002090601f016020900481019282620003d9576000855562000425565b82601f10620003f457805160ff191683800117855562000425565b8280016001018555821562000425579182015b828111156200042457825182559160200191906001019062000407565b5b50905062000434919062000438565b5090565b5b808211156200045357600081600090555060010162000439565b5090565b600081519050620004688162000568565b92915050565b6000806000606084860312156200048a576200048962000563565b5b60006200049a8682870162000457565b9350506020620004ad8682870162000457565b9250506040620004c08682870162000457565b9150509250925092565b6000620004d782620004de565b9050919050565b600073ffffffffffffffffffffffffffffffffffffffff82169050919050565b600060028204905060018216806200051757607f821691505b602082108114156200052e576200052d62000534565b5b50919050565b7f4e487b7100000000000000000000000000000000000000000000000000000000600052602260045260246000fd5b600080fd5b6200057381620004ca565b81146200057f57600080fd5b50565b6153df80620005926000396000f3fe60806040526004361061020f5760003560e01c8063715018a611610118578063c16024d1116100a0578063d3e864401161006f578063d3e86440146107a0578063e4edb9d0146107cb578063e985e9c514610808578063f2fde38b14610845578063ff46973e1461086e5761020f565b8063c16024d1146106f1578063c6c528a21461071c578063c87b56dd14610747578063d2dfa3c8146107845761020f565b80638da5cb5b116100e75780638da5cb5b1461060c57806395d89b41146106375780639c9c20e714610662578063a22cb4651461069f578063b88d4fde146106c85761020f565b8063715018a61461056657806385fe3ad21461057d57806389c18bf8146105ba5780638d6cc56d146105e35761020f565b80633578cec01161019b57806355f804b31161016a57806355f804b31461046f5780635d3fdd19146104985780636352211e146104c157806368428a1b146104fe57806370a08231146105295761020f565b80633578cec0146103b55780633ccfd60b146103f257806342842e0e146104095780634f6ccce7146104325761020f565b806318160ddd116101e257806318160ddd146102e25780631f73bf7f1461030d57806323b872dd146103385780632f745c591461036157806334918dfd1461039e5761020f565b806301ffc9a71461021457806306fdde0314610251578063081812fc1461027c578063095ea7b3146102b9575b600080fd5b34801561022057600080fd5b5061023b60048036038101906102369190613aed565b61088a565b604051610248919061423c565b60405180910390f35b34801561025d57600080fd5b50610266610904565b6040516102739190614257565b60405180910390f35b34801561028857600080fd5b506102a3600480360381019061029e9190613b90565b610996565b6040516102b091906141b3565b60405180910390f35b3480156102c557600080fd5b506102e060048036038101906102db9190613aad565b610a1b565b005b3480156102ee57600080fd5b506102f7610b33565b6040516103049190614659565b60405180910390f35b34801561031957600080fd5b50610322610b40565b60405161032f9190614659565b60405180910390f35b34801561034457600080fd5b5061035f600480360381019061035a9190613997565b610b45565b005b34801561036d57600080fd5b5061038860048036038101906103839190613aad565b610ba5565b6040516103959190614659565b60405180910390f35b3480156103aa57600080fd5b506103b3610c4a565b005b3480156103c157600080fd5b506103dc60048036038101906103d7919061392a565b610cf2565b6040516103e9919061423c565b60405180910390f35b3480156103fe57600080fd5b50610407610d12565b005b34801561041557600080fd5b50610430600480360381019061042b9190613997565b610f96565b005b34801561043e57600080fd5b5061045960048036038101906104549190613b90565b610fb6565b6040516104669190614659565b60405180910390f35b34801561047b57600080fd5b5061049660048036038101906104919190613b47565b611027565b005b3480156104a457600080fd5b506104bf60048036038101906104ba9190613b90565b6110bd565b005b3480156104cd57600080fd5b506104e860048036038101906104e39190613b90565b611143565b6040516104f591906141b3565b60405180910390f35b34801561050a57600080fd5b506105136111f5565b604051610520919061423c565b60405180910390f35b34801561053557600080fd5b50610550600480360381019061054b919061392a565b611208565b60405161055d9190614659565b60405180910390f35b34801561057257600080fd5b5061057b6112c0565b005b34801561058957600080fd5b506105a4600480360381019061059f919061392a565b611348565b6040516105b1919061423c565b60405180910390f35b3480156105c657600080fd5b506105e160048036038101906105dc9190613b90565b611368565b005b3480156105ef57600080fd5b5061060a60048036038101906106059190613b90565b611514565b005b34801561061857600080fd5b5061062161159a565b60405161062e91906141b3565b60405180910390f35b34801561064357600080fd5b5061064c6115c4565b6040516106599190614257565b60405180910390f35b34801561066e57600080fd5b506106896004803603810190610684919061392a565b611656565b604051610696919061423c565b60405180910390f35b3480156106ab57600080fd5b506106c660048036038101906106c19190613a6d565b611676565b005b3480156106d457600080fd5b506106ef60048036038101906106ea91906139ea565b6117f7565b005b3480156106fd57600080fd5b50610706611859565b604051610713919061421a565b60405180910390f35b34801561072857600080fd5b50610731611969565b60405161073e9190614659565b60405180910390f35b34801561075357600080fd5b5061076e60048036038101906107699190613b90565b6119f8565b60405161077b9190614257565b60405180910390f35b61079e60048036038101906107999190613bbd565b611a9f565b005b3480156107ac57600080fd5b506107b5611f16565b6040516107c29190614659565b60405180910390f35b3480156107d757600080fd5b506107f260048036038101906107ed919061392a565b611f1c565b6040516107ff9190614659565b60405180910390f35b34801561081457600080fd5b5061082f600480360381019061082a9190613957565b611f34565b60405161083c919061423c565b60405180910390f35b34801561085157600080fd5b5061086c6004803603810190610867919061392a565b611f9a565b005b61088860048036038101906108839190613b90565b612092565b005b60007f780e9d63000000000000000000000000000000000000000000000000000000007bffffffffffffffffffffffffffffffffffffffffffffffffffffffff1916827bffffffffffffffffffffffffffffffffffffffffffffffffffffffff191614806108fd57506108fc8261236a565b5b9050919050565b60606000805461091390614942565b80601f016020809104026020016040519081016040528092919081815260200182805461093f90614942565b801561098c5780601f106109615761010080835404028352916020019161098c565b820191906000526020600020905b81548152906001019060200180831161096f57829003601f168201915b5050505050905090565b60006109a18261244c565b6109e0576040517f08c379a00000000000000000000000000000000000000000000000000000000081526004016109d7906144f9565b60405180910390fd5b6004600083815260200190815260200160002060009054906101000a900473ffffffffffffffffffffffffffffffffffffffff169050919050565b6000610a2682611143565b90508073ffffffffffffffffffffffffffffffffffffffff168373ffffffffffffffffffffffffffffffffffffffff161415610a97576040517f08c379a0000000000000000000000000000000000000000000000000000000008152600401610a8e906145b9565b60405180910390fd5b8073ffffffffffffffffffffffffffffffffffffffff16610ab66124b8565b73ffffffffffffffffffffffffffffffffffffffff161480610ae55750610ae481610adf6124b8565b611f34565b5b610b24576040517f08c379a0000000000000000000000000000000000000000000000000000000008152600401610b1b90614459565b60405180910390fd5b610b2e83836124c7565b505050565b6000600880549050905090565b601481565b610b56610b506124b8565b82612580565b610b95576040517f08c379a0000000000000000000000000000000000000000000000000000000008152600401610b8c906145f9565b60405180910390fd5b610ba083838361265e565b505050565b6000610bb083611208565b8210610bf1576040517f08c379a0000000000000000000000000000000000000000000000000000000008152600401610be890614299565b60405180910390fd5b600660008473ffffffffffffffffffffffffffffffffffffffff1673ffffffffffffffffffffffffffffffffffffffff168152602001908152602001600020600083815260200190815260200160002054905092915050565b610c526124b8565b73ffffffffffffffffffffffffffffffffffffffff16610c7061159a565b73ffffffffffffffffffffffffffffffffffffffff1614610cc6576040517f08c379a0000000000000000000000000000000000000000000000000000000008152600401610cbd90614519565b60405180910390fd5b600d60009054906101000a900460ff1615600d60006101000a81548160ff021916908315150217905550565b60136020528060005260406000206000915054906101000a900460ff1681565b610d1a6124b8565b73ffffffffffffffffffffffffffffffffffffffff16610d3861159a565b73ffffffffffffffffffffffffffffffffffffffff1614610d8e576040517f08c379a0000000000000000000000000000000000000000000000000000000008152600401610d8590614519565b60405180910390fd5b601660009054906101000a900460ff1615610da857600080fd5b6001601660006101000a81548160ff021916908315150217905550600047905060008111610e0b576040517f08c379a0000000000000000000000000000000000000000000000000000000008152600401610e0290614279565b60405180910390fd5b6000600a82610e1a91906147cd565b9050600f60009054906101000a900473ffffffffffffffffffffffffffffffffffffffff1673ffffffffffffffffffffffffffffffffffffffff166108fc829081150290604051600060405180830381858888f19350505050158015610e84573d6000803e3d6000fd5b508082610e919190614858565b91506000600283610ea291906147cd565b9050600d60019054906101000a900473ffffffffffffffffffffffffffffffffffffffff1673ffffffffffffffffffffffffffffffffffffffff166108fc829081150290604051600060405180830381858888f19350505050158015610f0c573d6000803e3d6000fd5b50600e60009054906101000a900473ffffffffffffffffffffffffffffffffffffffff1673ffffffffffffffffffffffffffffffffffffffff166108fc829081150290604051600060405180830381858888f19350505050158015610f75573d6000803e3d6000fd5b505050506000601660006101000a81548160ff021916908315150217905550565b610fb1838383604051806020016040528060008152506117f7565b505050565b6000610fc0610b33565b8210611001576040517f08c379a0000000000000000000000000000000000000000000000000000000008152600401610ff890614619565b60405180910390fd5b6008828154811061101557611014614adb565b5b90600052602060002001549050919050565b61102f6124b8565b73ffffffffffffffffffffffffffffffffffffffff1661104d61159a565b73ffffffffffffffffffffffffffffffffffffffff16146110a3576040517f08c379a000000000000000000000000000000000000000000000000000000000815260040161109a90614519565b60405180910390fd5b80601090805190602001906110b992919061373e565b5050565b6110c56124b8565b73ffffffffffffffffffffffffffffffffffffffff166110e361159a565b73ffffffffffffffffffffffffffffffffffffffff1614611139576040517f08c379a000000000000000000000000000000000000000000000000000000000815260040161113090614519565b60405180910390fd5b80600c8190555050565b6000806002600084815260200190815260200160002060009054906101000a900473ffffffffffffffffffffffffffffffffffffffff169050600073ffffffffffffffffffffffffffffffffffffffff168173ffffffffffffffffffffffffffffffffffffffff1614156111ec576040517f08c379a00000000000000000000000000000000000000000000000000000000081526004016111e390614499565b60405180910390fd5b80915050919050565b600d60009054906101000a900460ff1681565b60008073ffffffffffffffffffffffffffffffffffffffff168273ffffffffffffffffffffffffffffffffffffffff161415611279576040517f08c379a000000000000000000000000000000000000000000000000000000000815260040161127090614479565b60405180910390fd5b600360008373ffffffffffffffffffffffffffffffffffffffff1673ffffffffffffffffffffffffffffffffffffffff168152602001908152602001600020549050919050565b6112c86124b8565b73ffffffffffffffffffffffffffffffffffffffff166112e661159a565b73ffffffffffffffffffffffffffffffffffffffff161461133c576040517f08c379a000000000000000000000000000000000000000000000000000000000815260040161133390614519565b60405180910390fd5b61134660006128ba565b565b60126020528060005260406000206000915054906101000a900460ff1681565b6113706124b8565b73ffffffffffffffffffffffffffffffffffffffff1661138e61159a565b73ffffffffffffffffffffffffffffffffffffffff16146113e4576040517f08c379a00000000000000000000000000000000000000000000000000000000081526004016113db90614519565b60405180910390fd5b601660009054906101000a900460ff16156113fe57600080fd5b6001601660006101000a81548160ff021916908315150217905550611b3981611425610b33565b61142f9190614777565b1115611470576040517f08c379a000000000000000000000000000000000000000000000000000000000815260040161146790614639565b60405180910390fd5b60148111156114b4576040517f08c379a00000000000000000000000000000000000000000000000000000000081526004016114ab906144d9565b60405180910390fd5b60005b818110156114f55760006114c9610b33565b90506114e1336001836114dc9190614777565b612980565b5080806114ed906149a5565b9150506114b7565b506000601660006101000a81548160ff02191690831515021790555050565b61151c6124b8565b73ffffffffffffffffffffffffffffffffffffffff1661153a61159a565b73ffffffffffffffffffffffffffffffffffffffff1614611590576040517f08c379a000000000000000000000000000000000000000000000000000000000815260040161158790614519565b60405180910390fd5b80600b8190555050565b6000600a60009054906101000a900473ffffffffffffffffffffffffffffffffffffffff16905090565b6060600180546115d390614942565b80601f01602080910402602001604051908101604052809291908181526020018280546115ff90614942565b801561164c5780601f106116215761010080835404028352916020019161164c565b820191906000526020600020905b81548152906001019060200180831161162f57829003601f168201915b5050505050905090565b60116020528060005260406000206000915054906101000a900460ff1681565b61167e6124b8565b73ffffffffffffffffffffffffffffffffffffffff168273ffffffffffffffffffffffffffffffffffffffff1614156116ec576040517f08c379a00000000000000000000000000000000000000000000000000000000081526004016116e3906143b9565b60405180910390fd5b80600560006116f96124b8565b73ffffffffffffffffffffffffffffffffffffffff1673ffffffffffffffffffffffffffffffffffffffff16815260200190815260200160002060008473ffffffffffffffffffffffffffffffffffffffff1673ffffffffffffffffffffffffffffffffffffffff16815260200190815260200160002060006101000a81548160ff0219169083151502179055508173ffffffffffffffffffffffffffffffffffffffff166117a66124b8565b73ffffffffffffffffffffffffffffffffffffffff167f17307eab39ab6107e8899845ad3d59bd9653f200f220920489ca2b5937696c31836040516117eb919061423c565b60405180910390a35050565b6118086118026124b8565b83612580565b611847576040517f08c379a000000000000000000000000000000000000000000000000000000000815260040161183e906145f9565b60405180910390fd5b6118538484848461299e565b50505050565b60606118636124b8565b73ffffffffffffffffffffffffffffffffffffffff1661188161159a565b73ffffffffffffffffffffffffffffffffffffffff16146118d7576040517f08c379a00000000000000000000000000000000000000000000000000000000081526004016118ce90614519565b60405180910390fd5b6000601590508080548060200260200160405190810160405280929190818152602001828054801561195e57602002820191906000526020600020905b8160009054906101000a900473ffffffffffffffffffffffffffffffffffffffff1673ffffffffffffffffffffffffffffffffffffffff1681526020019060010190808311611914575b505050505091505090565b60006119736124b8565b73ffffffffffffffffffffffffffffffffffffffff1661199161159a565b73ffffffffffffffffffffffffffffffffffffffff16146119e7576040517f08c379a00000000000000000000000000000000000000000000000000000000081526004016119de90614519565b60405180910390fd5b600060158054905090508091505090565b6060611a038261244c565b611a42576040517f08c379a0000000000000000000000000000000000000000000000000000000008152600401611a3990614559565b60405180910390fd5b6000611a4c6129fa565b90506000815111611a6c5760405180602001604052806000815250611a97565b80611a7684612a8c565b604051602001611a8792919061418f565b6040516020818303038152906040525b915050919050565b601660009054906101000a900460ff1615611ab957600080fd5b6001601660006101000a81548160ff021916908315150217905550600d60009054906101000a900460ff16611b23576040517f08c379a0000000000000000000000000000000000000000000000000000000008152600401611b1a906143f9565b60405180910390fd5b6014821115611b67576040517f08c379a0000000000000000000000000000000000000000000000000000000008152600401611b5e90614579565b60405180910390fd5b611b3982611b73610b33565b611b7d9190614777565b1115611bbe576040517f08c379a0000000000000000000000000000000000000000000000000000000008152600401611bb590614599565b60405180910390fd5b611bc781612bed565b611c06576040517f08c379a0000000000000000000000000000000000000000000000000000000008152600401611bfd90614319565b60405180910390fd5b6000600c54600b54611c189190614858565b9050348382611c2791906147fe565b1115611c68576040517f08c379a0000000000000000000000000000000000000000000000000000000008152600401611c5f90614379565b60405180910390fd5b601360008373ffffffffffffffffffffffffffffffffffffffff1673ffffffffffffffffffffffffffffffffffffffff16815260200190815260200160002060009054906101000a900460ff16611dcd576001601360008473ffffffffffffffffffffffffffffffffffffffff1673ffffffffffffffffffffffffffffffffffffffff16815260200190815260200160002060006101000a81548160ff0219169083151502179055506001601260008473ffffffffffffffffffffffffffffffffffffffff1673ffffffffffffffffffffffffffffffffffffffff16815260200190815260200160002060006101000a81548160ff0219169083151502179055506015829080600181540180825580915050600190039060005260206000200160009091909190916101000a81548173ffffffffffffffffffffffffffffffffffffffff021916908373ffffffffffffffffffffffffffffffffffffffff1602179055505b6001601160003373ffffffffffffffffffffffffffffffffffffffff1673ffffffffffffffffffffffffffffffffffffffff16815260200190815260200160002060006101000a81548160ff0219169083151502179055506001601460008473ffffffffffffffffffffffffffffffffffffffff1673ffffffffffffffffffffffffffffffffffffffff16815260200190815260200160002054611e719190614777565b601460008473ffffffffffffffffffffffffffffffffffffffff1673ffffffffffffffffffffffffffffffffffffffff1681526020019081526020016000208190555060005b83811015611ef5576000611ec9610b33565b9050611ee133600183611edc9190614777565b612980565b508080611eed906149a5565b915050611eb7565b50506000601660006101000a81548160ff0219169083151502179055505050565b611b3981565b60146020528060005260406000206000915090505481565b60007358807bad0b376efc12f5ad86aac70e78ed67deae73ffffffffffffffffffffffffffffffffffffffff168273ffffffffffffffffffffffffffffffffffffffff161415611f875760019050611f94565b611f918383612ddb565b90505b92915050565b611fa26124b8565b73ffffffffffffffffffffffffffffffffffffffff16611fc061159a565b73ffffffffffffffffffffffffffffffffffffffff1614612016576040517f08c379a000000000000000000000000000000000000000000000000000000000815260040161200d90614519565b60405180910390fd5b600073ffffffffffffffffffffffffffffffffffffffff168173ffffffffffffffffffffffffffffffffffffffff161415612086576040517f08c379a000000000000000000000000000000000000000000000000000000000815260040161207d906142d9565b60405180910390fd5b61208f816128ba565b50565b601660009054906101000a900460ff16156120ac57600080fd5b6001601660006101000a81548160ff021916908315150217905550600d60009054906101000a900460ff16612116576040517f08c379a000000000000000000000000000000000000000000000000000000000815260040161210d906143f9565b60405180910390fd5b601481111561215a576040517f08c379a000000000000000000000000000000000000000000000000000000000815260040161215190614579565b60405180910390fd5b611b3981612166610b33565b6121709190614777565b11156121b1576040517f08c379a00000000000000000000000000000000000000000000000000000000081526004016121a890614599565b60405180910390fd5b3481600b546121c091906147fe565b1115612201576040517f08c379a00000000000000000000000000000000000000000000000000000000081526004016121f8906143d9565b60405180910390fd5b6001601260003373ffffffffffffffffffffffffffffffffffffffff1673ffffffffffffffffffffffffffffffffffffffff16815260200190815260200160002060006101000a81548160ff02191690831515021790555060005b8181101561229a57600061226e610b33565b9050612286336001836122819190614777565b612980565b508080612292906149a5565b91505061225c565b506000601660006101000a81548160ff02191690831515021790555050565b60003073ffffffffffffffffffffffffffffffffffffffff163373ffffffffffffffffffffffffffffffffffffffff16141561236357600080368080601f016020809104026020016040519081016040528093929190818152602001838380828437600081840152601f19601f820116905080830192505050505050509050600080369050905073ffffffffffffffffffffffffffffffffffffffff818301511692505050612367565b3390505b90565b60007f80ac58cd000000000000000000000000000000000000000000000000000000007bffffffffffffffffffffffffffffffffffffffffffffffffffffffff1916827bffffffffffffffffffffffffffffffffffffffffffffffffffffffff1916148061243557507f5b5e139f000000000000000000000000000000000000000000000000000000007bffffffffffffffffffffffffffffffffffffffffffffffffffffffff1916827bffffffffffffffffffffffffffffffffffffffffffffffffffffffff1916145b80612445575061244482612e6f565b5b9050919050565b60008073ffffffffffffffffffffffffffffffffffffffff166002600084815260200190815260200160002060009054906101000a900473ffffffffffffffffffffffffffffffffffffffff1673ffffffffffffffffffffffffffffffffffffffff1614159050919050565b60006124c26122b9565b905090565b816004600083815260200190815260200160002060006101000a81548173ffffffffffffffffffffffffffffffffffffffff021916908373ffffffffffffffffffffffffffffffffffffffff160217905550808273ffffffffffffffffffffffffffffffffffffffff1661253a83611143565b73ffffffffffffffffffffffffffffffffffffffff167f8c5be1e5ebec7d5bd14f71427d1e84f3dd0314c0f7b2291e5b200ac8c7c3b92560405160405180910390a45050565b600061258b8261244c565b6125ca576040517f08c379a00000000000000000000000000000000000000000000000000000000081526004016125c190614419565b60405180910390fd5b60006125d583611143565b90508073ffffffffffffffffffffffffffffffffffffffff168473ffffffffffffffffffffffffffffffffffffffff16148061264457508373ffffffffffffffffffffffffffffffffffffffff1661262c84610996565b73ffffffffffffffffffffffffffffffffffffffff16145b8061265557506126548185611f34565b5b91505092915050565b8273ffffffffffffffffffffffffffffffffffffffff1661267e82611143565b73ffffffffffffffffffffffffffffffffffffffff16146126d4576040517f08c379a00000000000000000000000000000000000000000000000000000000081526004016126cb90614539565b60405180910390fd5b600073ffffffffffffffffffffffffffffffffffffffff168273ffffffffffffffffffffffffffffffffffffffff161415612744576040517f08c379a000000000000000000000000000000000000000000000000000000000815260040161273b90614399565b60405180910390fd5b61274f838383612ed9565b61275a6000826124c7565b6001600360008573ffffffffffffffffffffffffffffffffffffffff1673ffffffffffffffffffffffffffffffffffffffff16815260200190815260200160002060008282546127aa9190614858565b925050819055506001600360008473ffffffffffffffffffffffffffffffffffffffff1673ffffffffffffffffffffffffffffffffffffffff16815260200190815260200160002060008282546128019190614777565b92505081905550816002600083815260200190815260200160002060006101000a81548173ffffffffffffffffffffffffffffffffffffffff021916908373ffffffffffffffffffffffffffffffffffffffff160217905550808273ffffffffffffffffffffffffffffffffffffffff168473ffffffffffffffffffffffffffffffffffffffff167fddf252ad1be2c89b69c2b068fc378daa952ba7f163c4a11628f55a4df523b3ef60405160405180910390a4505050565b6000600a60009054906101000a900473ffffffffffffffffffffffffffffffffffffffff16905081600a60006101000a81548173ffffffffffffffffffffffffffffffffffffffff021916908373ffffffffffffffffffffffffffffffffffffffff1602179055508173ffffffffffffffffffffffffffffffffffffffff168173ffffffffffffffffffffffffffffffffffffffff167f8be0079c531659141344cd1fd0a4f28419497f9722a3daafe3b4186f6b6457e060405160405180910390a35050565b61299a828260405180602001604052806000815250612fed565b5050565b6129a984848461265e565b6129b584848484613048565b6129f4576040517f08c379a00000000000000000000000000000000000000000000000000000000081526004016129eb906142b9565b60405180910390fd5b50505050565b606060108054612a0990614942565b80601f0160208091040260200160405190810160405280929190818152602001828054612a3590614942565b8015612a825780601f10612a5757610100808354040283529160200191612a82565b820191906000526020600020905b815481529060010190602001808311612a6557829003601f168201915b5050505050905090565b60606000821415612ad4576040518060400160405280600181526020017f30000000000000000000000000000000000000000000000000000000000000008152509050612be8565b600082905060005b60008214612b06578080612aef906149a5565b915050600a82612aff91906147cd565b9150612adc565b60008167ffffffffffffffff811115612b2257612b21614b0a565b5b6040519080825280601f01601f191660200182016040528015612b545781602001600182028036833780820191505090505b5090505b60008514612be157600182612b6d9190614858565b9150600a85612b7c91906149ee565b6030612b889190614777565b60f81b818381518110612b9e57612b9d614adb565b5b60200101907effffffffffffffffffffffffffffffffffffffffffffffffffffffffffffff1916908160001a905350600a85612bda91906147cd565b9450612b58565b8093505050505b919050565b6000612bf8826131df565b612c37576040517f08c379a0000000000000000000000000000000000000000000000000000000008152600401612c2e906142f9565b60405180910390fd5b3373ffffffffffffffffffffffffffffffffffffffff168273ffffffffffffffffffffffffffffffffffffffff161415612ca6576040517f08c379a0000000000000000000000000000000000000000000000000000000008152600401612c9d90614439565b60405180910390fd5b601160003373ffffffffffffffffffffffffffffffffffffffff1673ffffffffffffffffffffffffffffffffffffffff16815260200190815260200160002060009054906101000a900460ff1615612d33576040517f08c379a0000000000000000000000000000000000000000000000000000000008152600401612d2a90614359565b60405180910390fd5b6000612d3e83611208565b1180612d935750601260008373ffffffffffffffffffffffffffffffffffffffff1673ffffffffffffffffffffffffffffffffffffffff16815260200190815260200160002060009054906101000a900460ff165b612dd2576040517f08c379a0000000000000000000000000000000000000000000000000000000008152600401612dc9906145d9565b60405180910390fd5b60019050919050565b6000600560008473ffffffffffffffffffffffffffffffffffffffff1673ffffffffffffffffffffffffffffffffffffffff16815260200190815260200160002060008373ffffffffffffffffffffffffffffffffffffffff1673ffffffffffffffffffffffffffffffffffffffff16815260200190815260200160002060009054906101000a900460ff16905092915050565b60007f01ffc9a7000000000000000000000000000000000000000000000000000000007bffffffffffffffffffffffffffffffffffffffffffffffffffffffff1916827bffffffffffffffffffffffffffffffffffffffffffffffffffffffff1916149050919050565b612ee4838383613252565b600073ffffffffffffffffffffffffffffffffffffffff168373ffffffffffffffffffffffffffffffffffffffff161415612f2757612f2281613257565b612f66565b8173ffffffffffffffffffffffffffffffffffffffff168373ffffffffffffffffffffffffffffffffffffffff1614612f6557612f6483826132a0565b5b5b600073ffffffffffffffffffffffffffffffffffffffff168273ffffffffffffffffffffffffffffffffffffffff161415612fa957612fa48161340d565b612fe8565b8273ffffffffffffffffffffffffffffffffffffffff168273ffffffffffffffffffffffffffffffffffffffff1614612fe757612fe682826134de565b5b5b505050565b612ff7838361355d565b6130046000848484613048565b613043576040517f08c379a000000000000000000000000000000000000000000000000000000000815260040161303a906142b9565b60405180910390fd5b505050565b60006130698473ffffffffffffffffffffffffffffffffffffffff1661372b565b156131d2578373ffffffffffffffffffffffffffffffffffffffff1663150b7a026130926124b8565b8786866040518563ffffffff1660e01b81526004016130b494939291906141ce565b602060405180830381600087803b1580156130ce57600080fd5b505af19250505080156130ff57506040513d601f19601f820116820180604052508101906130fc9190613b1a565b60015b613182573d806000811461312f576040519150601f19603f3d011682016040523d82523d6000602084013e613134565b606091505b5060008151141561317a576040517f08c379a0000000000000000000000000000000000000000000000000000000008152600401613171906142b9565b60405180910390fd5b805181602001fd5b63150b7a0260e01b7bffffffffffffffffffffffffffffffffffffffffffffffffffffffff1916817bffffffffffffffffffffffffffffffffffffffffffffffffffffffff1916149150506131d7565b600190505b949350505050565b60006132008273ffffffffffffffffffffffffffffffffffffffff1661372b565b15801561323a5750600073ffffffffffffffffffffffffffffffffffffffff168273ffffffffffffffffffffffffffffffffffffffff1614155b15613248576001905061324d565b600090505b919050565b505050565b6008805490506009600083815260200190815260200160002081905550600881908060018154018082558091505060019003906000526020600020016000909190919091505550565b600060016132ad84611208565b6132b79190614858565b905060006007600084815260200190815260200160002054905081811461339c576000600660008673ffffffffffffffffffffffffffffffffffffffff1673ffffffffffffffffffffffffffffffffffffffff168152602001908152602001600020600084815260200190815260200160002054905080600660008773ffffffffffffffffffffffffffffffffffffffff1673ffffffffffffffffffffffffffffffffffffffff168152602001908152602001600020600084815260200190815260200160002081905550816007600083815260200190815260200160002081905550505b6007600084815260200190815260200160002060009055600660008573ffffffffffffffffffffffffffffffffffffffff1673ffffffffffffffffffffffffffffffffffffffff16815260200190815260200160002060008381526020019081526020016000206000905550505050565b600060016008805490506134219190614858565b905060006009600084815260200190815260200160002054905060006008838154811061345157613450614adb565b5b90600052602060002001549050806008838154811061347357613472614adb565b5b9060005260206000200181905550816009600083815260200190815260200160002081905550600960008581526020019081526020016000206000905560088054806134c2576134c1614aac565b5b6001900381819060005260206000200160009055905550505050565b60006134e983611208565b905081600660008573ffffffffffffffffffffffffffffffffffffffff1673ffffffffffffffffffffffffffffffffffffffff168152602001908152602001600020600083815260200190815260200160002081905550806007600084815260200190815260200160002081905550505050565b600073ffffffffffffffffffffffffffffffffffffffff168273ffffffffffffffffffffffffffffffffffffffff1614156135cd576040517f08c379a00000000000000000000000000000000000000000000000000000000081526004016135c4906144b9565b60405180910390fd5b6135d68161244c565b15613616576040517f08c379a000000000000000000000000000000000000000000000000000000000815260040161360d90614339565b60405180910390fd5b61362260008383612ed9565b6001600360008473ffffffffffffffffffffffffffffffffffffffff1673ffffffffffffffffffffffffffffffffffffffff16815260200190815260200160002060008282546136729190614777565b92505081905550816002600083815260200190815260200160002060006101000a81548173ffffffffffffffffffffffffffffffffffffffff021916908373ffffffffffffffffffffffffffffffffffffffff160217905550808273ffffffffffffffffffffffffffffffffffffffff16600073ffffffffffffffffffffffffffffffffffffffff167fddf252ad1be2c89b69c2b068fc378daa952ba7f163c4a11628f55a4df523b3ef60405160405180910390a45050565b600080823b905060008111915050919050565b82805461374a90614942565b90600052602060002090601f01602090048101928261376c57600085556137b3565b82601f1061378557805160ff19168380011785556137b3565b828001600101855582156137b3579182015b828111156137b2578251825591602001919060010190613797565b5b5090506137c091906137c4565b5090565b5b808211156137dd5760008160009055506001016137c5565b5090565b60006137f46137ef84614699565b614674565b9050828152602081018484840111156138105761380f614b3e565b5b61381b848285614900565b509392505050565b6000613836613831846146ca565b614674565b90508281526020810184848401111561385257613851614b3e565b5b61385d848285614900565b509392505050565b6000813590506138748161534d565b92915050565b60008135905061388981615364565b92915050565b60008135905061389e8161537b565b92915050565b6000815190506138b38161537b565b92915050565b600082601f8301126138ce576138cd614b39565b5b81356138de8482602086016137e1565b91505092915050565b600082601f8301126138fc576138fb614b39565b5b813561390c848260208601613823565b91505092915050565b60008135905061392481615392565b92915050565b6000602082840312156139405761393f614b48565b5b600061394e84828501613865565b91505092915050565b6000806040838503121561396e5761396d614b48565b5b600061397c85828601613865565b925050602061398d85828601613865565b9150509250929050565b6000806000606084860312156139b0576139af614b48565b5b60006139be86828701613865565b93505060206139cf86828701613865565b92505060406139e086828701613915565b9150509250925092565b60008060008060808587031215613a0457613a03614b48565b5b6000613a1287828801613865565b9450506020613a2387828801613865565b9350506040613a3487828801613915565b925050606085013567ffffffffffffffff811115613a5557613a54614b43565b5b613a61878288016138b9565b91505092959194509250565b60008060408385031215613a8457613a83614b48565b5b6000613a9285828601613865565b9250506020613aa38582860161387a565b9150509250929050565b60008060408385031215613ac457613ac3614b48565b5b6000613ad285828601613865565b9250506020613ae385828601613915565b9150509250929050565b600060208284031215613b0357613b02614b48565b5b6000613b118482850161388f565b91505092915050565b600060208284031215613b3057613b2f614b48565b5b6000613b3e848285016138a4565b91505092915050565b600060208284031215613b5d57613b5c614b48565b5b600082013567ffffffffffffffff811115613b7b57613b7a614b43565b5b613b87848285016138e7565b91505092915050565b600060208284031215613ba657613ba5614b48565b5b6000613bb484828501613915565b91505092915050565b60008060408385031215613bd457613bd3614b48565b5b6000613be285828601613915565b9250506020613bf385828601613865565b9150509250929050565b6000613c098383613c15565b60208301905092915050565b613c1e8161488c565b82525050565b613c2d8161488c565b82525050565b6000613c3e8261470b565b613c488185614739565b9350613c53836146fb565b8060005b83811015613c84578151613c6b8882613bfd565b9750613c768361472c565b925050600181019050613c57565b5085935050505092915050565b613c9a8161489e565b82525050565b6000613cab82614716565b613cb5818561474a565b9350613cc581856020860161490f565b613cce81614b4d565b840191505092915050565b6000613ce482614721565b613cee818561475b565b9350613cfe81856020860161490f565b613d0781614b4d565b840191505092915050565b6000613d1d82614721565b613d27818561476c565b9350613d3781856020860161490f565b80840191505092915050565b6000613d5060188361475b565b9150613d5b82614b5e565b602082019050919050565b6000613d73602b8361475b565b9150613d7e82614b87565b604082019050919050565b6000613d9660328361475b565b9150613da182614bd6565b604082019050919050565b6000613db960268361475b565b9150613dc482614c25565b604082019050919050565b6000613ddc602e8361475b565b9150613de782614c74565b604082019050919050565b6000613dff60178361475b565b9150613e0a82614cc3565b602082019050919050565b6000613e22601c8361475b565b9150613e2d82614cec565b602082019050919050565b6000613e45601e8361475b565b9150613e5082614d15565b602082019050919050565b6000613e68601d8361475b565b9150613e7382614d3e565b602082019050919050565b6000613e8b60248361475b565b9150613e9682614d67565b604082019050919050565b6000613eae60198361475b565b9150613eb982614db6565b602082019050919050565b6000613ed1601d8361475b565b9150613edc82614ddf565b602082019050919050565b6000613ef460128361475b565b9150613eff82614e08565b602082019050919050565b6000613f17602c8361475b565b9150613f2282614e31565b604082019050919050565b6000613f3a60118361475b565b9150613f4582614e80565b602082019050919050565b6000613f5d60388361475b565b9150613f6882614ea9565b604082019050919050565b6000613f80602a8361475b565b9150613f8b82614ef8565b604082019050919050565b6000613fa360298361475b565b9150613fae82614f47565b604082019050919050565b6000613fc660208361475b565b9150613fd182614f96565b602082019050919050565b6000613fe960248361475b565b9150613ff482614fbf565b604082019050919050565b600061400c602c8361475b565b91506140178261500e565b604082019050919050565b600061402f60208361475b565b915061403a8261505d565b602082019050919050565b600061405260298361475b565b915061405d82615086565b604082019050919050565b6000614075602f8361475b565b9150614080826150d5565b604082019050919050565b600061409860208361475b565b91506140a382615124565b602082019050919050565b60006140bb60298361475b565b91506140c68261514d565b604082019050919050565b60006140de60218361475b565b91506140e98261519c565b604082019050919050565b600061410160418361475b565b915061410c826151eb565b606082019050919050565b600061412460318361475b565b915061412f82615260565b604082019050919050565b6000614147602c8361475b565b9150614152826152af565b604082019050919050565b600061416a60238361475b565b9150614175826152fe565b604082019050919050565b614189816148f6565b82525050565b600061419b8285613d12565b91506141a78284613d12565b91508190509392505050565b60006020820190506141c86000830184613c24565b92915050565b60006080820190506141e36000830187613c24565b6141f06020830186613c24565b6141fd6040830185614180565b818103606083015261420f8184613ca0565b905095945050505050565b600060208201905081810360008301526142348184613c33565b905092915050565b60006020820190506142516000830184613c91565b92915050565b600060208201905081810360008301526142718184613cd9565b905092915050565b6000602082019050818103600083015261429281613d43565b9050919050565b600060208201905081810360008301526142b281613d66565b9050919050565b600060208201905081810360008301526142d281613d89565b9050919050565b600060208201905081810360008301526142f281613dac565b9050919050565b6000602082019050818103600083015261431281613dcf565b9050919050565b6000602082019050818103600083015261433281613df2565b9050919050565b6000602082019050818103600083015261435281613e15565b9050919050565b6000602082019050818103600083015261437281613e38565b9050919050565b6000602082019050818103600083015261439281613e5b565b9050919050565b600060208201905081810360008301526143b281613e7e565b9050919050565b600060208201905081810360008301526143d281613ea1565b9050919050565b600060208201905081810360008301526143f281613ec4565b9050919050565b6000602082019050818103600083015261441281613ee7565b9050919050565b6000602082019050818103600083015261443281613f0a565b9050919050565b6000602082019050818103600083015261445281613f2d565b9050919050565b6000602082019050818103600083015261447281613f50565b9050919050565b6000602082019050818103600083015261449281613f73565b9050919050565b600060208201905081810360008301526144b281613f96565b9050919050565b600060208201905081810360008301526144d281613fb9565b9050919050565b600060208201905081810360008301526144f281613fdc565b9050919050565b6000602082019050818103600083015261451281613fff565b9050919050565b6000602082019050818103600083015261453281614022565b9050919050565b6000602082019050818103600083015261455281614045565b9050919050565b6000602082019050818103600083015261457281614068565b9050919050565b600060208201905081810360008301526145928161408b565b9050919050565b600060208201905081810360008301526145b2816140ae565b9050919050565b600060208201905081810360008301526145d2816140d1565b9050919050565b600060208201905081810360008301526145f2816140f4565b9050919050565b6000602082019050818103600083015261461281614117565b9050919050565b600060208201905081810360008301526146328161413a565b9050919050565b600060208201905081810360008301526146528161415d565b9050919050565b600060208201905061466e6000830184614180565b92915050565b600061467e61468f565b905061468a8282614974565b919050565b6000604051905090565b600067ffffffffffffffff8211156146b4576146b3614b0a565b5b6146bd82614b4d565b9050602081019050919050565b600067ffffffffffffffff8211156146e5576146e4614b0a565b5b6146ee82614b4d565b9050602081019050919050565b6000819050602082019050919050565b600081519050919050565b600081519050919050565b600081519050919050565b6000602082019050919050565b600082825260208201905092915050565b600082825260208201905092915050565b600082825260208201905092915050565b600081905092915050565b6000614782826148f6565b915061478d836148f6565b9250827fffffffffffffffffffffffffffffffffffffffffffffffffffffffffffffffff038211156147c2576147c1614a1f565b5b828201905092915050565b60006147d8826148f6565b91506147e3836148f6565b9250826147f3576147f2614a4e565b5b828204905092915050565b6000614809826148f6565b9150614814836148f6565b9250817fffffffffffffffffffffffffffffffffffffffffffffffffffffffffffffffff048311821515161561484d5761484c614a1f565b5b828202905092915050565b6000614863826148f6565b915061486e836148f6565b92508282101561488157614880614a1f565b5b828203905092915050565b6000614897826148d6565b9050919050565b60008115159050919050565b60007fffffffff0000000000000000000000000000000000000000000000000000000082169050919050565b600073ffffffffffffffffffffffffffffffffffffffff82169050919050565b6000819050919050565b82818337600083830152505050565b60005b8381101561492d578082015181840152602081019050614912565b8381111561493c576000848401525b50505050565b6000600282049050600182168061495a57607f821691505b6020821081141561496e5761496d614a7d565b5b50919050565b61497d82614b4d565b810181811067ffffffffffffffff8211171561499c5761499b614b0a565b5b80604052505050565b60006149b0826148f6565b91507fffffffffffffffffffffffffffffffffffffffffffffffffffffffffffffffff8214156149e3576149e2614a1f565b5b600182019050919050565b60006149f9826148f6565b9150614a04836148f6565b925082614a1457614a13614a4e565b5b828206905092915050565b7f4e487b7100000000000000000000000000000000000000000000000000000000600052601160045260246000fd5b7f4e487b7100000000000000000000000000000000000000000000000000000000600052601260045260246000fd5b7f4e487b7100000000000000000000000000000000000000000000000000000000600052602260045260246000fd5b7f4e487b7100000000000000000000000000000000000000000000000000000000600052603160045260246000fd5b7f4e487b7100000000000000000000000000000000000000000000000000000000600052603260045260246000fd5b7f4e487b7100000000000000000000000000000000000000000000000000000000600052604160045260246000fd5b600080fd5b600080fd5b600080fd5b600080fd5b6000601f19601f8301169050919050565b7f436f6e74726163742062616c616e636520697320617420300000000000000000600082015250565b7f455243373231456e756d657261626c653a206f776e657220696e646578206f7560008201527f74206f6620626f756e6473000000000000000000000000000000000000000000602082015250565b7f4552433732313a207472616e7366657220746f206e6f6e20455243373231526560008201527f63656976657220696d706c656d656e7465720000000000000000000000000000602082015250565b7f4f776e61626c653a206e6577206f776e657220697320746865207a65726f206160008201527f6464726573730000000000000000000000000000000000000000000000000000602082015250565b7f526566657272616c2061646472657373206973206e6f7420612076616c69642060008201527f77616c6c65742061646472657373000000000000000000000000000000000000602082015250565b7f526566657272616c206973206e6f742076616c69643a20000000000000000000600082015250565b7f4552433732313a20746f6b656e20616c7265616479206d696e74656400000000600082015250565b7f557365722068617320616c7265616479207573656420726566657272616c0000600082015250565b7f45746865722076616c75652073656e7420697320696e636f7272656374000000600082015250565b7f4552433732313a207472616e7366657220746f20746865207a65726f2061646460008201527f7265737300000000000000000000000000000000000000000000000000000000602082015250565b7f4552433732313a20617070726f766520746f2063616c6c657200000000000000600082015250565b7f4d617469632076616c75652073656e7420697320696e636f7272656374000000600082015250565b7f53616c65206973206e6f74206163746976650000000000000000000000000000600082015250565b7f4552433732313a206f70657261746f7220717565727920666f72206e6f6e657860008201527f697374656e7420746f6b656e0000000000000000000000000000000000000000602082015250565b7f43616e6e6f742072656665722073656c66000000000000000000000000000000600082015250565b7f4552433732313a20617070726f76652063616c6c6572206973206e6f74206f7760008201527f6e6572206e6f7220617070726f76656420666f7220616c6c0000000000000000602082015250565b7f4552433732313a2062616c616e636520717565727920666f7220746865207a6560008201527f726f206164647265737300000000000000000000000000000000000000000000602082015250565b7f4552433732313a206f776e657220717565727920666f72206e6f6e657869737460008201527f656e7420746f6b656e0000000000000000000000000000000000000000000000602082015250565b7f4552433732313a206d696e7420746f20746865207a65726f2061646472657373600082015250565b7f63616e206f6e6c792072657365727665206d6178696d756d203230207065722060008201527f74696d6500000000000000000000000000000000000000000000000000000000602082015250565b7f4552433732313a20617070726f76656420717565727920666f72206e6f6e657860008201527f697374656e7420746f6b656e0000000000000000000000000000000000000000602082015250565b7f4f776e61626c653a2063616c6c6572206973206e6f7420746865206f776e6572600082015250565b7f4552433732313a207472616e73666572206f6620746f6b656e2074686174206960008201527f73206e6f74206f776e0000000000000000000000000000000000000000000000602082015250565b7f4552433732314d657461646174613a2055524920717565727920666f72206e6f60008201527f6e6578697374656e7420746f6b656e0000000000000000000000000000000000602082015250565b7f43616e206f6e6c79206d696e7420323020626972647320617420612074696d65600082015250565b7f507572636861736520776f756c6420657863656564206d617820737570706c7960008201527f206f662042697264730000000000000000000000000000000000000000000000602082015250565b7f4552433732313a20617070726f76616c20746f2063757272656e74206f776e6560008201527f7200000000000000000000000000000000000000000000000000000000000000602082015250565b7f526566657272616c2061646472657373206e657665722070757263686173656460008201527f206120746f6b656e2c206f722069736e7420612063757272656e74206f776e6560208201527f7200000000000000000000000000000000000000000000000000000000000000604082015250565b7f4552433732313a207472616e736665722063616c6c6572206973206e6f74206f60008201527f776e6572206e6f7220617070726f766564000000000000000000000000000000602082015250565b7f455243373231456e756d657261626c653a20676c6f62616c20696e646578206f60008201527f7574206f6620626f756e64730000000000000000000000000000000000000000602082015250565b7f5265736572766174696f6e20776f756c6420657863656564206d61782073757060008201527f706c790000000000000000000000000000000000000000000000000000000000602082015250565b6153568161488c565b811461536157600080fd5b50565b61536d8161489e565b811461537857600080fd5b50565b615384816148aa565b811461538f57600080fd5b50565b61539b816148f6565b81146153a657600080fd5b5056fea2646970667358221220e67c7c3e6f75eb292a658f8d14b99eb524856162e0f29fd9083cd84413e5ec3b64736f6c63430008070033",
  "immutableReferences": {},
  "source": "  pragma solidity ^0.8.7;\r\n\r\n  import \"@openzeppelin/contracts/token/ERC721/extensions/ERC721Enumerable.sol\";\r\n  import \"@openzeppelin/contracts/access/Ownable.sol\";\r\n  import \"@openzeppelin/contracts/utils/Address.sol\";\r\n  import \"./ContextMixin.sol\";\r\n\r\n  contract PlayBirdMansion is ERC721Enumerable, ContextMixin, Ownable {\r\n\r\n    using Address for address;\r\n\r\n    uint256 public constant MAX_BIRDS = 6969;\r\n\r\n    uint256 public constant maxBirdPurchase = 20;\r\n\r\n    uint256 private birdPrice = 20 ether;\r\n\r\n    uint256 private referralDiscount = 2 ether;\r\n\r\n    bool public saleActive = false;\r\n\r\n    address payable internal artist;\r\n\r\n    address payable internal developer;\r\n\r\n    address payable internal marketer;\r\n\r\n    string internal baseURI;\r\n\r\n    mapping(address => bool) public alreadyReferred;  // user has used referral\r\n    mapping(address => bool) public referrableAddress;\r\n    mapping(address => bool) public referredToBefore;\r\n    mapping(address => uint256) public numReferrals;  // number of referrals an address has (used for contest)\r\n\r\n    address[] private referredAddresses; // used for calculations in referral contest\r\n\r\n    bool private reentrancyLock = false;\r\n\r\n    modifier reentrancyGuard {\r\n        if (reentrancyLock) {\r\n            revert();\r\n        }\r\n        reentrancyLock = true;\r\n        _;\r\n        reentrancyLock = false;\r\n    }\r\n\r\n    constructor (address payable _artist, address payable _developer, address payable _marketer) ERC721(\"Play Bird Mansion\", \"PBM\") {\r\n        artist = _artist;\r\n        developer = _developer;\r\n        marketer = _marketer;\r\n    }\r\n\r\n\r\n    function withdraw() public onlyOwner reentrancyGuard{\r\n        uint256 balance = address(this).balance;\r\n        require(balance > 0, \"Contract balance is at 0\");\r\n\r\n        uint256 marketerTransfer = balance / 10;\r\n        marketer.transfer(marketerTransfer);\r\n        balance = balance - marketerTransfer;\r\n\r\n        uint256 transferAmount = balance / 2;\r\n        artist.transfer(transferAmount);\r\n        developer.transfer(transferAmount);\r\n    }\r\n\r\n    function setBaseURI(string memory newURI) external onlyOwner{\r\n        baseURI = newURI;\r\n    }\r\n\r\n    function _baseURI() internal view override returns (string memory) {\r\n        return baseURI;\r\n    }\r\n\r\n    function reserveBirds(uint256 amount) external onlyOwner reentrancyGuard {\r\n        require(totalSupply() + amount <= MAX_BIRDS, \"Reservation would exceed max supply\");\r\n        require(amount <= maxBirdPurchase, \"can only reserve maximum 20 per time\");\r\n\r\n        for (uint i = 0; i < amount; i++) {\r\n            uint256 index = totalSupply();\r\n            _safeMint(msg.sender, index + 1);\r\n        }\r\n    }\r\n\r\n    function flipSaleState() external onlyOwner {\r\n        saleActive = !saleActive;\r\n    }\r\n\r\n    function mintBird(uint numberOfBirds) external payable reentrancyGuard {\r\n        require(saleActive, \"Sale is not active\");\r\n        require(numberOfBirds <= maxBirdPurchase, \"Can only mint 20 birds at a time\");\r\n        require(totalSupply() + numberOfBirds <= MAX_BIRDS, \"Purchase would exceed max supply of Birds\");\r\n        require(birdPrice * numberOfBirds <= msg.value, \"Matic value sent is incorrect\");\r\n\r\n        referrableAddress[msg.sender] = true;\r\n\r\n        for(uint i = 0; i < numberOfBirds; i++) {\r\n            uint256 index = totalSupply();\r\n            _safeMint(msg.sender, index + 1);\r\n        }\r\n\r\n    }\r\n\r\n    function mintBirdWithReferral(uint numberOfBirds, address referral) external payable reentrancyGuard {\r\n        require(saleActive, \"Sale is not active\");\r\n        require(numberOfBirds <= maxBirdPurchase, \"Can only mint 20 birds at a time\");\r\n        require(totalSupply() + numberOfBirds <= MAX_BIRDS, \"Purchase would exceed max supply of Birds\");\r\n        require(validReferral(referral), \"Referral is not valid: \");\r\n\r\n        uint256 price = birdPrice - referralDiscount;\r\n        require(price * numberOfBirds <= msg.value, \"Ether value sent is incorrect\");\r\n\r\n        if(!referredToBefore[referral]) {\r\n          referredToBefore[referral] = true;\r\n          referrableAddress[referral] = true;\r\n          referredAddresses.push(referral);\r\n        }\r\n\r\n        alreadyReferred[msg.sender] = true;\r\n        numReferrals[referral] = numReferrals[referral] + 1;\r\n\r\n        for(uint i = 0; i < numberOfBirds; i++) {\r\n          uint256 index = totalSupply();\r\n          _safeMint(msg.sender, index + 1);\r\n        }\r\n\r\n\r\n    }\r\n\r\n    function validReferral(address referral) private view returns (bool) {\r\n        require(validAddress(referral), \"Referral address is not a valid wallet address\");\r\n        require(referral != msg.sender, \"Cannot refer self\");\r\n        require(!(alreadyReferred[msg.sender]), \"User has already used referral\");\r\n        require(balanceOf(referral) > 0 || referrableAddress[referral], \"Referral address never purchased a token, or isnt a current owner\");\r\n        return true;\r\n    }\r\n\r\n    function validAddress(address referral) private view returns (bool) {\r\n        if(!(referral.isContract())\r\n            && (referral != address(0))\r\n          ){\r\n              return true;\r\n          }\r\n\r\n        return false;\r\n    }\r\n\r\n    function updatePrice(uint256 newPrice) public onlyOwner {\r\n        birdPrice = newPrice;\r\n    }\r\n\r\n    function updateDiscount(uint256 newDc) public onlyOwner {\r\n        referralDiscount = newDc;\r\n    }\r\n\r\n    /**\r\n     * This is used instead of msg.sender as transactions won't be sent by the original token owner, but by OpenSea.\r\n     */\r\n    function _msgSender()\r\n        internal\r\n        override\r\n        view\r\n        returns (address sender)\r\n    {\r\n        return ContextMixin.msgSender();\r\n    }\r\n\r\n  /**\r\n   * Override isApprovedForAll to auto-approve OS's proxy contract\r\n   */\r\n    function isApprovedForAll(\r\n        address _owner,\r\n        address _operator\r\n    ) public override view returns (bool isOperator) {\r\n      // if OpenSea's ERC721 Proxy Address is detected, auto-return true\r\n        if (_operator == address(0x58807baD0B376efc12F5AD86aAc70E78ed67deaE)) {\r\n            return true;\r\n        }\r\n\r\n        // otherwise, use the default ERC721.isApprovedForAll()\r\n        return ERC721.isApprovedForAll(_owner, _operator);\r\n    }\r\n\r\n    function getReferredAddressesLength() external view onlyOwner returns(uint256) {\r\n        uint256 length = referredAddresses.length;\r\n        return length;\r\n    }\r\n\r\n    function getReferredAddresses() external view onlyOwner returns (address[] memory) {\r\n        address[] storage addresses = referredAddresses;\r\n        return addresses;\r\n    }\r\n\r\n  }\r\n",
  "sourcePath": "/mnt/c/pr0/play-bird-mansion/src/contracts/PlayBirdMansion.sol",
  "compiler": {
    "name": "solc",
    "version": "0.8.7+commit.e28d00a7.Emscripten.clang"
  },
  "schemaVersion": "3.2.3",
  "updatedAt": "2021-09-21T06:39:47.093Z",
  "networkType": "ethereum",
  "devdoc": {
    "kind": "dev",
    "methods": {
      "approve(address,uint256)": {
        "details": "See {IERC721-approve}."
      },
      "balanceOf(address)": {
        "details": "See {IERC721-balanceOf}."
      },
      "getApproved(uint256)": {
        "details": "See {IERC721-getApproved}."
      },
      "name()": {
        "details": "See {IERC721Metadata-name}."
      },
      "owner()": {
        "details": "Returns the address of the current owner."
      },
      "ownerOf(uint256)": {
        "details": "See {IERC721-ownerOf}."
      },
      "renounceOwnership()": {
        "details": "Leaves the contract without owner. It will not be possible to call `onlyOwner` functions anymore. Can only be called by the current owner. NOTE: Renouncing ownership will leave the contract without an owner, thereby removing any functionality that is only available to the owner."
      },
      "safeTransferFrom(address,address,uint256)": {
        "details": "See {IERC721-safeTransferFrom}."
      },
      "safeTransferFrom(address,address,uint256,bytes)": {
        "details": "See {IERC721-safeTransferFrom}."
      },
      "setApprovalForAll(address,bool)": {
        "details": "See {IERC721-setApprovalForAll}."
      },
      "supportsInterface(bytes4)": {
        "details": "See {IERC165-supportsInterface}."
      },
      "symbol()": {
        "details": "See {IERC721Metadata-symbol}."
      },
      "tokenByIndex(uint256)": {
        "details": "See {IERC721Enumerable-tokenByIndex}."
      },
      "tokenOfOwnerByIndex(address,uint256)": {
        "details": "See {IERC721Enumerable-tokenOfOwnerByIndex}."
      },
      "tokenURI(uint256)": {
        "details": "See {IERC721Metadata-tokenURI}."
      },
      "totalSupply()": {
        "details": "See {IERC721Enumerable-totalSupply}."
      },
      "transferFrom(address,address,uint256)": {
        "details": "See {IERC721-transferFrom}."
      },
      "transferOwnership(address)": {
        "details": "Transfers ownership of the contract to a new account (`newOwner`). Can only be called by the current owner."
      }
    },
    "version": 1
  },
  "userdoc": {
    "kind": "user",
    "methods": {
      "isApprovedForAll(address,address)": {
        "notice": "Override isApprovedForAll to auto-approve OS's proxy contract"
      }
    },
    "version": 1
  }
}